:02000004080AE8
:1000000000000A0818880A0800000500060005011B
:080010000402EA0300000000F5
:10001800EC7A0A0809480A4908B5884205D0094A0D
:10002800824202D0121A04F043FE0748074A002110
:10003800121A04F048FE064808BD00BF000300205D
:100048007C860A087404002078040020600C0020D4
:10005800600C002070B503F06FF9074B074C1E4683
:10006800E41AA4080025A54204D056F8253098477C
:100078000135F8E770BD00BF1C860A0864860A08C7
:1000880000F082BF08B501F04BF8BDE8084003F066
:1000980015B901F0EDBD01F0EBBD01F0F1BD01F0C6
:1000A800EFBD0078B0FA80F0400970470123037073
:1000B80070470368C9B29B6818470022427007223C
:1000C80001708270704710B5044603F061F9217819
:1000D80002F028F903F05CF90021FFF7EAFF03F0CA
:1000E80057F90368A1789B68984703F051F9BDE870
:1000F800104002F022B900002DE9F041044688467C
:1001080017461E469DF8185003F042F92178134C03
:1001180002F008F903F03CF90121FFF7CAFF03F0E8
:1001280037F954F82810FFF7C4FF03F031F954F8F1
:100138002710FFF7BEFF03F02BF954F82610FFF73E
:10014800B8FF03F025F954F82510FFF7B2FF03F0C4
:100158001FF9BDE8F04102F0F0B800BF000300202D
:100168008378417023F0700343EA01138370FFF72B
:10017800AABF437853B18278013BDBB222F0700208
:10018800437042EA03138370FFF79DBF704710B5B1
:10019800044603F0FDF8217802F0C4F803F0F8F8FB
:1001A8000121FFF786FF03F0F3F80021FFF781FF35
:1001B80003F0EEF80021FFF77CFF03F0E9F80021D7
:1001C800FFF777FF03F0E4F80021FFF772FF03F071
:1001D800DFF8BDE8104002F0B0B800002DE9F041AA
:1001E800314E054637464FF00508002403F0D0F895
:1001F800297802F097F803F0CBF80121FFF759FFAF
:1002080003F0C6F8316AFFF754FF03F0C1F8316A0A
:10021800FFF74FFF03F0BCF8316AFFF74AFF03F01E
:10022800B7F8316AFFF745FF03F0B2F802F085F836
:10023800142001F06DFDE1B228460134FFF790FF6C
:10024800082CD3D103F0A4F8297802F06BF803F056
:100258009FF80121FFF72DFF03F09AF8396AFFF79D
:1002680028FF03F095F8396AFFF723FF03F090F8A9
:10027800396AFFF71EFF03F08BF8396AFFF719FF99
:1002880003F086F802F059F8142001F041FD2846E1
:10029800FFF76FFF013CD5D1B8F10108A5D1284679
:1002A800BDE8F041FFF773BF0003002001F032BB47
:1002B800704710B50446FFF7F0FE204610BD000059
:1002C80070B5044E00254560066001724273837361
:1002D800C57370BD087B0A0838B504460D4603F09F
:1002E80057F8217A02F01EF8022001F0F3FA03F021
:1002F8004FF8E17B036829439B689847022001F087
:10030800E9FA03F045F802F018F8BDE83840022091
:1003180001F0E0BA0823C3730021FFF7DDBF38B549
:1003280005460C4641F00401FFF7D6FF012001F015
:10033800D1FA284604F0FB01FFF7CEFFBDE83840AC
:10034800322001F0C7BA38B504460D46FFF7C4FF9E
:1003580029462046BDE83840FFF7E1BF70B50D4695
:100368001446064621F00F011143FFF7ECFF44EA5B
:1003780005113046BDE87040C9B2FFF7E4BF08B5C3
:100388000122FFF7EBFF002008BD0022FFF7E6BFC0
:1003980008B50121FFF7F9FFBDE808404FF4FA60FE
:1003A80001F098BA08B50221FFF7EFFFBDE8084051
:1003B8004FF4FA6001F08EBA7FB5054614460E4632
:1003C8000C4B0DF1100E0FCB0EE90F002B7B2846BE
:1003D800A3423CBF03F1FF34E4B204AB03EB840453
:1003E80054F8101C314461F07F01C9B2FFF7CDFF0A
:1003F80004B070BD187B0A0808B5817A41F0040280
:10040800827241F00C01FFF7C0FF08BD10B5012A48
:1004180088BF417A044684BF41F0080141720273E3
:100428002BB1012A02BF437A43F0040343723220FE
:1004380001F06EFCE17B2046FFF74EFF4FF47A7027
:1004480001F066FC30212046FFF77DFF41F2941051
:1004580001F040FA30212046FFF775FF41F2941071
:1004680001F038FA30212046FFF76DFF962001F0A1
:1004780031FA20462021FFF766FF617A204641F0D5
:100488002001FFF782FF0423A3722046FFF7B4FF81
:100498002046FFF77DFF02232046E3720621FFF77F
:1004A80074FF2046BDE81040FFF77CBF10B5044636
:1004B80002F06EFF0A4901F019FF02F069FF0121FD
:1004C80001F018FF02F064FF01F018FF00236372C7
:1004D800A27B617B2046BDE81040FFF797BF00BFB5
:1004E800A0860100FFF7E2BF01F014BA38B50B4B44
:1004F8008469054603607CB16368013B63605BB94E
:10050800236820469B689847A368013BA3601BB9F2
:1005180023682046DB689847284638BDE47E0A08E9
:1005280010B50446FFF7E2FF2046FFF7B6FD204668
:1005380010BD38B51D46059B04460363002343637D
:1005480002B1826419B104F1380002F0EBF8049B9F
:10055800E0692365069BA4F84C50FF2BB8BFFF2326
:10056800A4F8543008B1FFF79AFDB4F85400FFF727
:1005780092FDE06138BD0000F0B5044616461F46FE
:100588000D4685B002F0BCFA094904F1380002F0C2
:10059800B6F8FF2302930F230093204601973346B2
:1005A8002A460021FFF7C5FF204605B0F0BD00BF71
:1005B800E47D0A0810B50446204602F011FA002826
:1005C800FAD0204602F0B3F9C0B210BD2DE9F047C9
:1005D8000546C4698A46FFF7EDFF4FF00108464615
:1005E8002070EB69002793F8009009F0F00928467D
:1005F800FFF7E0FFEB69741C985500F07F0303FBDD
:1006080008770306A4B2BFB24FEAC81801D5264638
:10061800EDE7631EB9F1300F8AF8003013D1284690
:10062800D5F81C80FFF7C6FF08F804002846D5F85F
:100638001C80FFF7BFFFF41C0236B6B2A4B208F85C
:100648000600022300E000231B1B9EB2A3199BB2E5
:100658009F420BD92846FFF7ADFFB5F85430A342A7
:1006680084BFEB6918550134A4B2EFE7B5F854001C
:10067800A0422CBF20460020BDE8F087F7B507460A
:100688008E461E461D46002405F07F0302A9ED098B
:10069800214418BF43F08003013401F8043CE4B25C
:1006A800002DF1D1C4F10403D11802F803E0A542EA
:1006B80006DA01A82B1B285C134458710135F6E7AC
:1006C800721C2244384602F0A4F8054601F00AF9E3
:1006D800013478623444A8B2231A5842584103B00E
:1006E800F0BD10B50446C369E0221A70C369002240
:1006F8005A70C169022202F08CF8204602F0AEF965
:1007080001F0F0F86062A06210BDF0B50D4602334A
:100718009BB26C1A15F8016BA4B23EB1B0F85470D4
:100728009F4203D95C1CD654A3B2F2E7191B0A44B2
:10073800211202F8021C02F8014C1846F0BD38B527
:10074800054602F08FFA002814BF0124002402D1C4
:10075800284602F083F9204638BD2DE9F04F83B0D2
:1007680000AF0446FFF7EBFF8146002800F0BD808C
:1007780001F0B8F8226D4FF47A735343A26A054624
:10078800821A9A4203D8626A821A934217D294F85C
:100798002C302BB1204602F061F94FF00009A4E09B
:1007A800E269C0211170E26920465370E1690222B2
:1007B80002F02FF801236562A56284F82C302046E8
:1007C80002F00EF9002800F09080F91D2046FFF78E
:1007D800FDFE0246002800F08880E169A5620878DD
:1007E80000F0F003302B58D1D4F830B0BBF1000F33
:1007F8007BD097F807E0EA4601EB0E00467883784D
:1008080003EB06239BB203F1080020F00700ADEBD1
:10081800000D684600261FFA86FC634508D90EEBD2
:10082800060C8C449CF803C000F806C00136F2E7B9
:100838000026C65491F800800EF1030608F0060859
:10084800B8F1020FCEEB020220D11E4411F806C007
:100858000EF1050E0E447678D21A73441944053AFF
:1008680006EB0C26D847E36940221A70E369B6B252
:1008780083F80180E36932129A70E3690422DE701A
:10088800E169204601F0C5FF656204E0033A1E44B1
:10089800D21A3144D847D54627E000F0E005402D6C
:1008A8000DD1646B0CB3042A1FD110F0060F1CD1B4
:1008B8008878CB7803EB002080B2A04715E0702B36
:1008C80013D0902B11D0C02B0AD1D0230B70E36921
:1008D80000225A70E1690222204601F09AFF04E0E2
:1008E800D02B04BF002384F82C3048460C37BD4673
:1008F800BDE8F08F2DE9F14F0D9E04468B469146D9
:100908009A469DF828809DF82C509DF83070FFF786
:1009180016FF00284BD0B4F854200021E06904F0F9
:10092800D2F90523E26959462046FFF7EEFE6B1E11
:10093800012B12D8238CE26901339BB223841B124A
:100948001354411CE369228C89B2023080B25A5494
:100958001EB1238C5A1C22843380002291B2831842
:100968008A459BB209D9B4F8546001329E4204D931
:1009780019F80160E169CE54F0E7B8F1000F0CBF37
:10098800302131210FB141F00801022D02D141F08F
:10099800040103E0012D08BF41F002012046053B98
:1009A800E2699BB201B0BDE8F04FFFF767BE01B046
:1009B800BDE8F08F1FB5089C0394002402949DF8AD
:1009C8001C4001949DF818400094FFF793FF04B071
:1009D80010BD7FB5054610460E46144604F0E6FEE7
:1009E800002302930193009322460346314628468A
:1009F800FFF7E0FF04B070BD10B50446FFF79FFE97
:100A080010B12046FFF76DFEE06908B1FFF747FB1C
:100A180004F1380001F02CFE2046FFF767FD204660
:100A280010BD00002DE9F04389B0044689461746F9
:100A38001E46DDF84080FFF782FE0546002840F09C
:100A4800AE80A16C39B90346B4F84C20A16B20469E
:100A580001F000FF09E002A801F0C6FC2B46B4F83B
:100A68004C2002A9204602F055F8002800F0938097
:100A78004D4A012310685168238402AB03C3127ADC
:100A88001A70052302A91944E26911F8051CD1540A
:100A980001330E2BF6D1B8F1000F0AD09DF848307B
:100AA8009DF844205B0143F0060343EAC203DBB22E
:100AB80000E002239DF850200AB903F0FD032FB18E
:100AC80016B943F0800301E043F0C003E2694946E8
:100AD8009373236DE2691B12D373E369226D204679
:100AE8001A74E2691123FFF710FEB8F1000F0BD05A
:100AF8000346E26941462046FFF707FEE2690346DE
:100B080013992046FFF701FE67B10346E2693946AB
:100B18002046FFF7FAFD2EB10346E269314620462A
:100B2800FFF7F3FD431F9BB2E26910212046FFF750
:100B3800A5FD00F0D7FE4FF47A766062A0622046E9
:100B480001F04EFF40B900F0CDFEA36AC01A236D34
:100B580073439842F3D91EE00DF107012046FFF7D1
:100B680035FD042817D1E369DE7866B900F0BAFECE
:100B780084F82C60A06202F0BDFA0C4A314601F0FC
:100B8800AAFC01250CE002F0B5FAE369084ADB7813
:100B9800002101F0A0FC204601F060FF00E00025E4
:100BA800284609B0BDE8F083287B0A08317B0A088B
:100BB800507B0A087FB50123049300230393029313
:100BC800019300931A46FFF72DFF07B05DF804FB69
:100BD80000F0A0BE00F09EBE38B504460D4600F0F9
:100BE80081FE02F0C1FE0023A361E3610123C4E991
:100BF80004012376256002F0CBFB01F07FFB204641
:100C080038BD10B5044602F0C3FB216801F08EFB25
:100C180002F0BEFB0122216801F07FFB02F0B8FB65
:100C280003685B699847207102F0B2FB01F085FB0D
:100C3800A060207910BD38B505460C46FFF7E1FFE6
:100C480001232A7903FA04F10A4214BF1846002046
:100C580038BD0000F8B54418002784F82070054610
:100C6800FFF7E9FF012806460CD0237EC3B127769B
:100C780000F038FE02F078FE0123C5E9040184F88B
:100C880020300DE000F02EFE02F06EFED5E90423C0
:100C980002F02CFD0022044B03F058F900B9267627
:100CA80094F82000F8BD00BF0000494000F032BEB3
:100CB80003685A68986812F0010F4FEA620218BF79
:100CC80081581B68104418BFCB58184703685A68E6
:100CD800986812F0010F4FEA620218BF81581B682A
:100CE800104418BFCB5818471FB5684601F007FDD8
:100CF8000E49684601F03EFD0D490446684601F07C
:100D080039FD204310F0FF0F07D0684601F044FD7D
:100D1800013003F08BFA02F015F8064B0022684602
:100D28001A7001F0A5FC04B010BD00BF887C0A0849
:100D3800257E0A087C0400201FB5684601F0DFFC08
:100D4800684601F02EFD064B002258605A7068462E
:100D580001229A7001F08CFC05B05DF804FB00BF1D
:100D68007C04002080B5083222F0070200AF012081
:100D7800ADEB020D00F0CCFF4FF47A7000F0C8FF25
:100D8800BD4680BD10B5012303714369044613B104
:100D980083690C3098470023237110BD07B50023E1
:100DA80002A941F8043D00F06DFD20B9019810B189
:100DB80003689B68984703B05DF804FB022A38B5BE
:100DC800044605D0032A0FD0012A10D10B6809E088
:100DD8000C200D68FFF75DF9034618B195E8070088
:100DE80083E80700236002E00068FFF756F9002057
:100DF80038BD000013B50446054B00221B788DF85A
:100E080000303C2301F0D0F8204602B010BD00BFEE
:100E1800A0040020022A38B5044605D0032A0FD0C2
:100E2800012A10D10B6809E00C200D68FFF731F991
:100E3800034618B195E8070083E80700236002E03D
:100E48000068FFF72AF9002038BD10B5836804460A
:100E580013B1032201469847204610BDF0B5044659
:100E68008E461549002585B005718560456101608C
:100E780002AF92E8030087E8030004F10C0696E845
:100E8800030082E8030097E8030086E803009168FE
:100E9800606990606161D168A069D060A1618DE8E6
:100EA8002800064A2346714604F1080000F0DAFCDF
:100EB800204605B0F0BD00BF847B0A08A50D0A08CE
:100EC80007B58068002340B18DE80A001A46022160
:100ED80000F0E0FCB0FA80F0400903B05DF804FBD4
:100EE80037B505460C460021FFF7EAFFA86800233E
:100EF80040B1019300941A46194600F0CBFCB0FAB1
:100F080080F0400903B030BD38B50E4B044603608D
:100F1800836883B16FF00041FFF7D2FF237903F0B4
:100F2800FF051BB1012000F0F3FEF7E72946A06892
:100F380000F0A0FCA56004F10C00FFF786FF204636
:100F480038BD00BF847B0A0810B50446FFF7DCFFF4
:100F58002046FFF7A2F8204610BD38B504680546BC
:100F68007CB16368013B63605BB9236820469B687A
:100F78009847A368013BA3601BB923682046DB6838
:100F88009847284638BD000030B585B002F000FA11
:100F9800002401F0B3F94F494F48FFF70BFE2346F1
:100FA8002246019400944D494D4800F041FE2346E5
:100FB80022464C49019400944B4800F039FE4FF406
:100FC800FA7000F0A5FE4948FFF77DF84748FFF79B
:100FD80005F901214548FFF7C3F807230822012135
:100FE800009342482346FFF787F84148FFF77AFA0B
:100FF8003F48FFF78FF9224621463D48FFF7DCF9C5
:101008003C493B4801F028FA012221463848FFF7BD
:10101800D3F93949364801F01FFA032221463448EA
:10102800FFF7CAF93549324801F016FA032221467A
:101038002F48FFF7C1F94FF47A7000F069FE304984
:101048002B4801F009FA2F4DC82000F061FE01235A
:101058002D4902A82B70FFF7CDFE03A8FFF77DFFEF
:10106800214603222248FFF7A7F92849204801F022
:10107800F3F92C46257845B14FF47A7000F048FE14
:1010880023491B4801F0E8F9F4E71E4B01222149E6
:1010980002A85A70FFF7AEFE03A8FFF75EFF2946C5
:1010A80003221348FFF788F91B49114801F0D4F9C6
:1010B80063782BB14FF47A7000F02AFE1449F4E7F4
:1010C8000B48FFF765F96FF000411448FFF708FF78
:1010D80005B030BD907B0A0830050020F10C0A08E5
:1010E8009C7B0A08410D0A08B27B0A081C050020EF
:1010F80020050020CC7B0A08DC7B0A08EC7B0A0868
:10110800FF7B0A087C040020AA7B0A08187C0A08CE
:101118002A7D0A08C07B0A08257C0A088404002066
:10112800F0B5844889B000F045FB824C032800F2F2
:10113800D681DFE810F00400B50029019B017D4845
:1011480000F03AFBD8B100217A4800F037FB6FF085
:1011580000417948FFF7C4FE7848FFF719F9784845
:10116800FFF7EDFA48B1774A77497548FFF731FC40
:10117800764A75497248FFF72CFC012323702378BF
:1011880083B16C4B0022724904A81A70FFF732FE33
:1011980005A8FFF7E2FE04A86E49FFF72BFE05A895
:1011A800FFF7DBFE6C4DAB783BB300240622696881
:1011B80004A8AC7001F0C7FA012221465F48FFF786
:1011C800FBF866495D4801F047F9686802F0EEFBF4
:1011D800634ACDE900012146584801F07CF9DF2334
:1011E800604A2146554801F076F9049A5E49544808
:1011F800FFF7EFFB04A801F03BFA032200214F4858
:10120800FFF7DAF801F08DFE584B0246584904A85A
:1012180001F034FE0499494801F01EF904A801F0D0
:1012280027FA01F085FE0A2590FBF5F0C5B201F01A
:1012380093FEC2070BD401F07BFE044601F078FE52
:101248006FF0090390FBF3F000EB80000CE001F075
:101258006FFE064601F06CFE6FF0090490FBF4F097
:1012680006F1100400EB800004EB4000C4B201F06A
:1012780069FE074601F066FE064601F063FE6FF060
:10128800090290FBF2F00A2397FBF3F300EB8000CE
:1012980006EB4000C0B20090DBB2224629461AE1B4
:1012A800244800F089FA002800F02D810021214807
:1012B80000F084FA6FF000411F48FFF711FE6FF04D
:1012C80000412C48FFF7FCFD2B4800F0BEFA1C48F3
:1012D800FFF735FA48B11B4A1B491948FFF779FB54
:1012E800264A19491648FFF774FB0021224800F0E6
:1012F800B4FA01210446204800F0AFFA022105465D
:101308001D4800F0AAFA032106461B4800F0A5FA7A
:1013180033462A46214600901948FEF7EDFE074855
:10132800FFF736F8002101220448FFF745F8154970
:10133800E6E000BFA10400200005002020050020F1
:1013480030050020367C0A085A7C0A086C7C0A089A
:10135800C07B0A08AA7B0A087C0400208A7C0A0849
:10136800977C0A089C7C0A08A27C0A08B77C0A08B1
:10137800C8050020B4040020D0040020C47C0A085A
:101388001C050020E37C0A08864800F015FA0028AE
:1013980030D00021834800F011FA6FF000418248F4
:1013A800FFF79EFD6FF000418048FFF799FD8048E8
:1013B800FFF7C5F948B17F4A7F497D48FFF709FB28
:1013C8007E4A7D497A48FFF704FB7D48FEF7E0FF37
:1013D800012200217A48FEF7EFFF7A49784801F0A8
:1013E8003BF8062176480222FEF7E6FF7649744864
:1013F80001F032F80021754800F02FFA0121044667
:10140800724800F02AFA02210546704800F025FAD1
:10141800032106466D4800F020FA334600902A461C
:1014280021466B48FEF768FE032200216448FEF758
:10143800C3FF0021654800F010FA01210446634803
:1014480000F00BFA02210546604800F006FA032175
:1014580006465E4800F001FA8DE8600002902346D7
:101468005C4A0021564801F036F84CE04D4800F03F
:10147800A3F9C8B100214B4800F0A0F96FF0004172
:101488004948FFF72DFD6FF000414848FFF718FD68
:101498004B48FEF77DFF002149480122FEF78CFFEB
:1014A8004D49474800F0D8FF0021484800F0D5F9D9
:1014B80001210446454800F0D0F902210546434879
:1014C80000F0CBF906460321404800F0C6F9334640
:1014D8002A46214600903E48FEF70EFE13E03148AA
:1014E80000F06AF978B100212E4800F067F9344815
:1014F800FEF74EFF002101223148FEF75DFF374914
:101508002F4800F0A9FF00213548FFF7A3FB18B1C9
:101518000021244800F055F901213148FFF79AFBD2
:1015280018B101211F4800F04CF900220F2124486E
:10153800FEF742FF01F010FDC30703D401F0F1FCF0
:10154800284B02E001F0EDFC274B0246274904A88E
:1015580001F094FC04991A4800F07EFF04A801F0F9
:1015680087F81348FFF7EBF80322122120B114483B
:10157800FEF722FF1E490CE01148FEF71DFF1D492A
:101588000F4800F069FF1C490948FFF713FB18B919
:101598001A490B4800F060FF0548FFF7DEF809B06C
:1015A800F0BD00BFA104002000050020B404002005
:1015B80030050020F77C0A085A7C0A08C47C0A080F
:1015C800200500201D7D0A082C7D0A08D004002073
:1015D8001C0500203A7D0A08447D0A08537D0A0844
:1015E800D80400205F7D0A08657D0A08C805002028
:1015F8006B7D0A08167C0A08907B0A082A7D0A086F
:10160800F0B587B004468DE80C001E460C20002378
:101618000D4617460493FEF73CFD18B10C9B076076
:1016280046608360084B02900593084B02AA049316
:1016380029469DF834302046FFF710FC02A8FFF732
:1016480004FC204607B0F0BDB90C0A081D0E0A08B4
:1016580070B5384B8AB000241C7000F05BF9042385
:10166800142227213448FEF72BFE344A34493248E5
:1016780001F0E8FE38213348FEF71FFD20213248EB
:10168800FFF7AAFA314D324B40F25B7231493248CA
:10169800FEF772FF294A31492F4801F0D3FE304E38
:1016A800284600F073F82F4800F0A8F8304600F0FC
:1016B800ABF82D4B039402930194009502AB0CCB2D
:1016C80047F230512948FFF79BFF1C4A2849274811
:1016D80001F0B8FE274B059404930194009504ABE0
:1016E8000CCB47F230512448FFF78AFF134A2049B0
:1016F800214801F0A7FE0C200894FEF7CAFC10B19F
:101708001E4B80E858001E4B06AA09931D4B0690F5
:1017180008934FF47A7100231B48FFF79FFB06A834
:10172800FFF793FB054A1249174801F08BFE0AB0F0
:1017380070BD00BFA0040020200500207804002010
:10174800B9020A081C050020D8040020A1040020C2
:101758006D0D0A088003002030050020010A0A08E0
:10176800D00400207C040020E1170A0800050020AE
:10177800110F0A08F3170A08840400201D180A0824
:10178800D50C0A08C50D0A08B404002008490A68DF
:1017980042604A680221826081730022012102733B
:1017A8004273C27342708170C2700270704700BF8A
:1017B8006E7D0A08407870478078704781700846C7
:1017C8007047427800EB420319440B799A421EBFD6
:1017D8000122827043707047427883181B7B9A42BB
:1017E8001EBF0122827043707047C378132B89BFD4
:1017F8000123013303700023C37070470022027075
:10180800827000224260704700220270427082702B
:10181800C2707047C378ABB983780921C17073B9B6
:101828004378052282703BB9037841700BB9027086
:101838007047013B03707047013B43707047013BA1
:1018480083707047013BC370704701230370052301
:10185800437000238370C3707047405C704700F08A
:1018680059B8000008B5024B1B681B6A019308BDF4
:10187800D001060808B5024B1B685B6A019308BDD6
:10188800D001060808B5024B1B689B6A019308BD86
:10189800D001060808B5024B1B68DB6A019308BD36
:1018A800D001060808B5024B1B681B6B019308BDE5
:1018B800D001060808B5024B1B68DB6E019308BD12
:1018C800B801060808B5024B1B685B68019308BDA0
:1018D8009C01060808B5024B1B68DB68019308BD2C
:1018E8009C01060808B5024B1B685B69019308BD9B
:1018F8009C01060808B5024B1B68DB69019308BD0B
:101908009C01060808B5024B1B689B6D019308BD36
:101918009C01060808B5024B1B681B68019308BDAB
:10192800B001060808B5024B1B681B6C019308BD83
:10193800AC01060808B5024B1B689B6C019308BDF7
:10194800AC01060808B5024B1B68DB6C019308BDA7
:10195800AC01060808B5024B1B685B6D019308BD16
:10196800AC01060808B5024B1B689B6D019308BDC6
:10197800AC01060808B5024B1B68DB6D019308BD76
:10198800AC01060808B5024B1B681B6E019308BD25
:10199800AC01060808B5024B1B685B6E019308BDD5
:1019A800AC01060808B5024B1B689B6E019308BD85
:1019B800AC01060808B5024B1B68DB6E019308BD35
:1019C800AC01060808B5024B1B681B6F019308BDE4
:1019D800AC01060808B5034B1B68D3F880300193A7
:1019E80008BD0000AC01060808B5024B1B681B685F
:1019F800019308BDBC01060808B5024B1B685B686B
:101A0800019308BDBC01060808B5024B1B689B681A
:101A1800019308BDBC01060808B5024B1B68DB68CA
:101A2800019308BDBC01060808B5024B1B681B6979
:101A3800019308BDBC01060808B5024B1B681B6A68
:101A4800019308BDBC01060808B5024B1B681B6B57
:101A5800019308BDBC01060808B5024B1B685B6C06
:101A6800019308BDBC01060808B5024B1B68DB6979
:101A7800019308BDB401060808B5024B1B689B69B1
:101A8800019308BDC401060808B5024B1B685B6AD0
:101A9800019308BDC401060808B5024B1B689B6A80
:101AA800019308BDC401060808B5024B1B68DB6A30
:101AB800019308BDC401060808B5024B1B681B6BDF
:101AC800019308BDC401060808B5024B1B685B6B8F
:101AD800019308BDC401060808B5024B1B681B6CBE
:101AE800019308BDC401060808B5024B1B681B68B2
:101AF800019308BDD801060808B5024B1B681B698D
:101B0800019308BDD801060808B5024B1B685B693C
:101B1800019308BDD801060808B5024B1B689B69EC
:101B2800019308BDD801060808B5024B1B68DB699C
:101B3800019308BDD801060808B5024B1B681B6A4B
:101B4800019308BDD801060808B5024B1B685B6CF9
:101B5800019308BDC001060808B5024B1B689B6CC1
:101B6800019308BDC001060808B5024B1B681B6D30
:101B7800019308BDA801020808B5024B1B681B6841
:101B8800019308BDA401060808B5024B1B685B68F1
:101B9800019308BDA401060808B5024B1B685B69E0
:101BA800019308BDA401060808B5024B1B68DB6C4D
:101BB800019308BDA401060808B5024B1B685B6DBC
:101BC800019308BDA401060808B5024B1B689B6D6C
:101BD800019308BDA401060808B5034B1B68D3F898
:101BE8009030019308BD0000A401060808B5034B16
:101BF8001B68D3F89C30019308BD0000A4010608B7
:101C080008B5024B1B689B68019308BDCC01060808
:101C180008B5024B1B685B69019308BDCC01060837
:101C280008B5024B1B681B6A019308BDCC01060866
:101C380008B5024B1B685B6A019308BDCC01060816
:101C480008B5024B1B681B6B019308BDCC01060845
:101C580008B5024B1B68DB6B019308BDCC01060875
:101C680008B5024B1B681B69019308BDC80106082B
:101C780008B5024B1B681B68019308BDA001060844
:101C880008B5024B1B685B68019308BDA0010608F4
:101C980008B5024B1B689B68019308BDA0010608A4
:101CA80008B5024B1B681B69019308BDA001060813
:101CB80008B5024B1B689B69019308BDA001060883
:101CC80008B5024B1B68DB69019308BDA001060833
:101CD80008B5024B1B681B6A019308BDA0010608E2
:101CE80008B5024B1B685B6A019308BDA001060892
:101CF80008B5024B1B68DB6A019308BDA001060802
:101D080008B5024B1B681B6B019308BDA0010608B0
:101D18000021FFF741BF10B5836804460BB901F0F5
:101D280096FBC3689847A3681BB103222146204647
:101D380098472046BDE81040FEF7AFB9704700202D
:101D4800704710B50446FEF7A8F9204610BD08B53F
:101D580008B1FFF7F6FF08BD38B5C468D4B12378D9
:101D6800022B02D1E068FFF78BFF65682DB128468A
:101D7800FFF76BF82846FEF790F9A5682DB12846BD
:101D8800FFF763F82846FEF788F92046BDE8384093
:101D9800FEF783B938BD13B5044691E80500002362
:101DA8004B600B602060626001A801930093FFF70D
:101DB800D4F8204602B010BD0B68036013B15A680E
:101DC80001325A607047F7B50C4606460F4654F87C
:101DD800043B02AD45F8083D214601A8FFF7ECFF9A
:101DE80029463046FFF7D7FF01A8FFF7B6F8204687
:101DF800FFF7B3F83846FEF750F9304603B0F0BDA8
:101E080013B50B46044603C88DE8030093E80300A6
:101E180084E803009DE8030083E8030002B010BDD6
:101E2800826810B50AB901F012FBC368BDE810401A
:101E3800184708B5006800F11001FFF7F1FF08BD69
:101E4800826810B50AB901F002FBC368BDE810400A
:101E5800184708B5006800F11001FFF7F1FF08BD49
:101E680038B5002383608B6804460D462BB10222E7
:101E78009847EB68E360AB68A360204638BD000074
:101E88002DE9F0414FF69C7304684FF0020086B0CC
:101E9800B1F904208B8000230F688DF800300B60A7
:101EA800D4E84F1F994203D1C4E8450F002DF7D15C
:101EB80002D08DF800106BE014F10C051CBFE76030
:101EC8002282BFF35F8F18BF1F4601236370BFF3E1
:101ED8005F8F04F10803002053E8006F43E8000215
:101EE800002AF9D1BFF35F8F002E51D0FFF75CFEB7
:101EF80020B129463046FFF793FF43E03146684654
:101F0800FFF7AEFFE068B4F9105008B102F01EFF09
:101F180004901020ADF81450FEF7BBF8054630B316
:101F28004FF00008C0F808801820FEF7B2F8044601
:101F3800C0B1C0F8088001466846FFF761FF029B00
:101F4800A268A360039B0292E268E360BDF81430C4
:101F58000392A3824FF69C73ADF81430049BCDF81E
:101F6800108023610D4B2C60EB600D4BAB60049827
:101F7800FFF786FE6846FEF768FF002229460948F3
:101F8800FFF71AFE3046FEF760FF3046FEF785F889
:101F98003846FFF775FE06B0BDE8F0813B1E0A081B
:101FA80099200A081F1D0A082DE9F04F8BB007ADCC
:101FB8004FF0000B0646994614200C230F46904616
:101FC8009DF850A0C5F804B0C5F808B00793FEF70F
:101FD80060F8044638B180F800B080F801B0C0F865
:101FE80004B0C0F808B00023102003940493FEF74F
:101FF80050F828B1012343608360234BC460036019
:10200800224B049008200893FEF743F8044628B1B1
:10201800039B04A940F8043BFFF7CEFE00955FFA46
:102028008AF34A46414638460994FFF7F9FDB8B99C
:10203800039B5B7803F0FF0293B94FF69C7305A9E5
:1020480003A80592ADF81830FFF71AFF0598FFF7B7
:1020580017FE05A80999FFF7B6FE06A8FEF77DFF4B
:10206800039B04A906A80593FFF7A6FE05A9304619
:10207800FFF791FE06A8FEF770FF04A8FEF76DFFB4
:1020880030460BB0BDE8F08F807D0A0801220A08AF
:10209800022AF8B5044606D0032A17D0012A20D10F
:1020A8000B6803601DE018200E68FDF7F2FF054677
:1020B80050B13146FFF7D4FE3069B6F9147008B153
:1020C80002F044FE2861AF8225600AE0046844B14A
:1020D8002069FFF7D5FD2046FEF7B7FE2046FDF73D
:1020E800DCFF0020F8BD38B5002383608B68044608
:1020F8000D462BB102229847EB68E360AB68A360FA
:10210800204638BD022A70B5044606D0032A11D0ED
:10211800012A17D10B68036014E014200E68FDF73C
:10212800B8FF054620B13146FFF7DDFF337C2B743D
:10213800256007E004682CB12046FEF786FE20469D
:10214800FDF7ABFF002070BDF0B50C46BFF35F8F05
:1021580087B0002350E8006F40E80032002AF9D128
:10216800BFF35F8F002E3ED01846FFF71DFD0746D0
:1021780020B121463046FFF763FE2EE0314601A824
:10218800FFF7B1FF237810208DF81430FDF781FF99
:102198000546D0B187601420FDF77BFF044678B16F
:1021A8008760014601A8FFF72BFE039BA268A36086
:1021B800049B0392E268E3609DF814300492237450
:1021C8000A4B2C60EB600A4BAB6001A8FEF73DFEA2
:1021D800002229460748FFF7EFFC3046FEF735FE98
:1021E8003046FDF75AFF07B0F0BD00BF5B1E0A0876
:1021F8000D210A081F1D0A0830B5044685B00D4692
:1022080068461146FFF7DFFD7CB124B228460DB1C0
:1022180002F09CFD029002A96846ADF80C40FFF759
:102228002FFE0298FFF72CFD1DE04FF001020098E9
:102238008DF80840D0E84F3FA34203D1C0E8412FB2
:102248000029F7D102D08DF808300CE010F10C010C
:102258004FF0010318BF0373BFF35F8F043000F81A
:10226800033CFFF771FF01A8FEF777FE05B030BD0C
:102278007047F8B5064615460C468F18BC4206D07E
:10228800336814F8011B9B6830469847F6E72846E0
:10229800F8BD0022007CFFF775BB0021007CFFF72A
:1022A80079BB0021007CFFF77DBB0021007CFFF794
:1022B80081BB0021007CFFF785BB10B50446FDF704
:1022C800ECFE204610BD000010B5044608464FF449
:1022D8007A73A360044B0021207461602360FFF7C8
:1022E80079FB204610BD00BF9C7D0A080022007CB7
:1022F800FFF718BB0022007CFFF71CBB00231A461F
:102308001946007CFFF71EBB13B50024007C00941F
:10231800FFF720FBC0B202B010BD0123D2B2C9B290
:10232800FFF7F2BF0022007CFFF71CBBC9B2FFF722
:10233800F9BF0022007CFFF71DBB0121FFF7F9BFA1
:10234800704710B50446FDF7A8FE204610BDF8B545
:102358000F4600F10806051D002416F8011D0A2283
:10236800384600F0B6F8AE42044407D0002CF4D04A
:102378002E21384600F074F80444EEE72046F8BDF4
:1023880010B50446044B112240F8043B002102F02A
:102398009AFC204610BD00BFC47D0A0810B59DF800
:1023A800084044EA032343EA024242EA0161042363
:1023B8004160037510BD000037B5044D05609DF8F8
:1023C80018500095FFF7EAFF03B030BDC47D0A0836
:1023D80037B50D788B784A78C97800912946FFF788
:1023E800DDFF03B030BD000010B50446024B0360AA
:1023F800FFF7EEFF204610BDC47D0A08014A024BD4
:102408001A607047867E0A0888050020F8B50646D7
:102418000D468F180024BD420CD0336815F8011BF7
:102428009B6830469847002801DB0444F3E7002CFA
:1024380008BF04462046F8BD70B505460C46084658
:1024480049B103F0B3F92B68024621462846BDE896
:102458007040DB68184770BD08B5FFF7EDFF08BD91
:1024680003689B68184738B50D210546FFF7F8FF44
:102478000A2104462846FFF7F3FF204438BD012A05
:1024880098BF0A2230B50B468BB000218DF8241076
:102498000DF12304B3FBF2F505FB1233DBB2092B74
:1024A80094BF30333733DBB2214604F801392B4669
:1024B800002DEFD1FFF7C0FF0BB030BD10B422B92B
:1024C8000368C9B29B6810BC1847D2B210BCFFF7AA
:1024D800D6BFFFF7F3BF0CB42DE9F04387B000AFC8
:1024E80007F1380454F8049B05460E4623464A462D
:1024F8001421381D3C60FFF7F3FB132805D8391D5C
:102508002846FFF799FF044613E000F1080323F07B
:102518000703E846ADEB030D411C23464A466846CF
:102528003C60FFF7DDFB69462846FFF785FF044658
:10253800C5461EB12846FFF796FF044420461C37BF
:10254800BD46BDE8F04302B0704710B50446FEF73B
:102558007CFC204610BD0000034800238360034A2A
:10256800034900F06FBF00BF8C05002078040020ED
:1025780053250A08704710B50446FDF78EFD20461E
:1025880010BD000070B504460E46074B00250360D9
:1025980040F80C5FFFF786F930462671FFF764FABA
:1025A800A560204670BD00BFB87E0A082DE9F14F2E
:1025B80080460D4617461E460022002340462946FF
:1025C80001F0BAFC20B12D23337005F10045013626
:1025D800002301240A22D9B28F4202D9544301337D
:1025E800F9E7204601F0D0F942462B4601F032FACD
:1025F80082468B4602F072F88046894601F0F4F96B
:1026080002460B465046594601F070F80022174B17
:1026180001F0A6FC18B118F1010849F10009E51705
:1026280022462B464046494602F040F801230A223A
:10263800314600F0E8FDAFB1304603F0B7F82E237D
:1026480033540130064422462B464046494602F0A0
:102658002DF83B46104631460A2201B0BDE8F04F3E
:1026680000F0D1BD01B0BDE8F08F00BF0000E03F31
:1026780010B504460068FFF703FB204610BD10B5EF
:102688000446006808B1FFF7FBFA00232360A36043
:10269800636010BD38B504460D4600680131FFF788
:1026A800F7FA10B184E82100012038BD10B503689D
:1026B800044613B143688B4207D22046FFF7EAFF6E
:1026C80020B1A3680BB922681370012010BD70B542
:1026D8000E46114604461546FFF7E8FF18B920468E
:1026E800FFF7CDFF09E02A463146A560206802F0D1
:1026F800DFFA2268A3680021D154204670BD38B59E
:102708000023044603604360836003730D4639B1B8
:10271800084603F04BF8294602462046FFF7D7FF44
:10272800204638BD38B505460C4641B1084603F089
:102738003DF8214602462846FFF7C9FF01E0FFF7AA
:102748009EFF284638BD30B5044600238BB0036091
:10275800436083600373D5B2084601F027F901ABE3
:102768002A46FFF723FF01A92046FFF7DBFF204693
:102778000BB030BD08B582680B4612B919B90120F3
:1027880008BD11B90368187802E0006802F0CCFAB5
:10279800B0FA80F0400908BD006808B102F079B9C4
:1027A800704708B5006820B102F070F901F034FCF8
:1027B80008BD002008BD00004FF69C7337B50D4CCE
:1027C800002563804FF6FF732846A3802570FFF726
:1027D800DBF902A840F8045D2A462946FFF76AF8A3
:1027E800019B1E2B04D10323237011236580A38032
:1027F80003B030BD9C05002037B502AC036804F86F
:10280800011DDD6B012247F230532146A84703B072
:1028180030BD10B40368DC6B47F23053A44610BCDB
:10282800604737B502AC036804F8011DDD6B21462B
:1028380013460122A84703B030BD704770470020F7
:10284800704710B50446FDF728FC204610BDFDF77B
:1028580024BC00002DE9F0431F4603688FB0DB6AF3
:1028680006460C4690469847134B186803681B6841
:102878009847F0B102A8FFF783FD204602F096FFC3
:102888000023009381B23B4603AA2046FFF764F970
:1028980078B9336809ADD3F82090084B03AC089396
:1028A8000FCC0FC5236842462B7008A93B4630461B
:1028B800C8470FB0BDE8F083D87F0A08C47D0A086E
:1028C80010B5044603689B689847A368013BA3605A
:1028D8002BB923682046BDE81040DB68184710BDB7
:1028E80070B5044606464D69044B8C3544F8043BE4
:1028F8000FCD0FC42B683046237070BDC47D0A0805
:1029080010B543690446B3F88620B3F884309A4278
:1029180005D06269B2F884301344187910BD036891
:102928001B6998470028F4D14FF0FF3010BD10B54F
:1029380043690446B3F88620B3F884309A4208D035
:102948006269B2F88430591CA2F8841013441879CB
:1029580010BD03681B6998470028F1D14FF0FF307C
:1029680010BD10B504692068FFF746F810B120685B
:10297800FFF762F82046BDE81040FDF78EBBF8B5BA
:1029880043691746B3F88620B3F8843005469A425F
:102998000E4606D103681B69984710B94FF0FF34FB
:1029A80014E069693046B1F88430B1F886401944BA
:1029B800E41ABC4228BF3C460431224602F078F9AA
:1029C8006A69B2F884302344A2F884302046F8BDFE
:1029D80042690023A2F884304269A2F88630704721
:1029E80038B542690446B2F886301BB1B2F8842083
:1029F8009A420BD0184B186803681B68984718B39D
:102A080063691868FEF7F8FF18B91DE0FFF7E0FFE3
:102A1800F0E76069B0F886107F2915D8051DC1F167
:102A28008002002329440068FEF7FEFF00280BDD22
:102A38006369B3F886200AB9A3F884206269B2F8FA
:102A480086301844A2F886006269B2F88630B2F877
:102A58008400181A38BD00BFD87F0A0838B5436902
:102A680004461868FEF7C8FF18B163691868FEF7CE
:102A7800E3FF6569FEF7E8FF28606069112200211D
:102A88008C3002F020F92046BDE83840FFF7A0BF9F
:102A9800F8B54FF47A738360174B002646600360DD
:102AA800466186610446A0200F46FDF7F2FA054606
:102AB80038B10760A0F88460A0F886608830FFF716
:102AC8005FFC1420FDF7E5FA034628B101224260B5
:102AD80082600A4A05610260A0696561A36128B144
:102AE8004368013B43600BB9FFF7EAFE2046FFF756
:102AF8006FFF2046F8BD00BFE47E0A08C87E0A08BA
:102B080010B50446FEF7A0FF01462046FFF7C0FFB8
:102B1800204610BD2DE9F041984603688AB0DB6A6B
:102B280006460C46154698472F4B186803681B68DD
:102B38009847002855D02B4606220121CDF8008061
:102B480002207769FEF760FF202338600293002790
:102B5800736903971B6801200193244B02AA009311
:102B680023493B46FFF700F873691868FEF744FFEE
:102B7800002836D03046FFF72BFF0223ADF8083087
:102B88002B0A8DF80A30E3794FF4FA508DF80C309F
:102B9800A3798DF80B508DF80D3063798DF80E30D0
:102BA80014F8043F8DF80F30FEF7CEFF7369054621
:102BB800102202A91868FEF72FFF80462846FEF764
:102BC800C3FF0FCC75698C350FC523682B70B8F11E
:102BD800000F05D033683046DB6A9847384600E076
:102BE80001200AB0BDE8F081D87F0A082F7F0A08C3
:102BF800287F0A0810B5436904461868FEF7FCFEEA
:102C080008B9002010BD074B186803681B6898476F
:102C18000028F6D063691868FEF7E6FEB0FA80F07F
:102C2800400910BDD87F0A082DE9F3410025456009
:102C380004460E4617469846FFF7DCFF60B1606908
:102C48000195CDF800802B463A4631460068FEF7DC
:102C580003FF002803DA01E04FF0FF30606002B0A4
:102C6800BDE8F08138B50446FFF7C4FF00BB6369CF
:102C7800B3F88610B3F88420914219D11868FEF78A
:102C8800BBFE28B163691868FEF7AEFE012801D0C3
:102C980000250EE0236820461B699847002814BFCA
:102CA8000125002505D123682046DB6A984700E006
:102CB8000125284638BD08B5FFF79CFF003018BF2E
:102CC800012008BDF0B5144B144F1E68144B064480
:102CD80018683B6806449E428BB01BD00AA840F88F
:102CE800286D01F0E9FE0446436901AD03F26C73F7
:102CF80043610FCC0FC50FCC0FC5D4F800E0094CC9
:102D0800C5F800E001AD0FCD0FC40FCD0FC43E6074
:102D1800C4F800E00BB0F0BDD8050020D4050020B1
:102D2800D0050020A405002008B50020FEF788FF84
:102D380028B1FEF76DFF80F00100C0B208BD012088
:102D480008BD000010B50949044601F061FC60B9EE
:102D58000749204601F07AFC38B90649204601F0B7
:102D6800B9FA01F07DFC044B186010BD000040C1A9
:102D78000000604100006145D805002037B50E4BC2
:102D880004461B6802A819440C4B1B68194440F8F8
:102D9800041D01F091FE01F03DFE054602F006FD1E
:102DA8000023284400F8013C29462046FFF7A7FCE9
:102DB800204603B030BD00BFD8050020D005002054
:102DC8002DE9F047A2B012AC0746894620461146C5
:102DD8001D4601F0B3FF204602F0E8FC804625B905
:102DE800244902A801F0AAFF13E03C2195FBF1F267
:102DF800002AB8BF524292FBF1F301FB13224FF4B1
:102E08006163009295FBF3F31B4A0A2102A8FEF7BF
:102E180057FF25462E1B08F1FF3AB2451BD92B78E0
:102E2800252B16D16B787A2B13D102A802F0BEFCA1
:102E380080463044C6EB0A02A91C204401F038FF42
:102E4800424602A9284601F033FF204602F0AEFCB4
:102E580080460135DEE74B462246322105A801F0BF
:102E6800F1FF05A93846FFF74AFC384622B0BDE80D
:102E7800F08700BFE5840A08437F0A08F7B50546CE
:102E880001921C4613B9124B1C682CB1114B2046F9
:102E9800196801F049FF20B901992846FFF76EFF2C
:102EA80013E00D4F019A3B680C4E1A44336802A890
:102EB800134440F8043D01F0FFFD3A6833680146C9
:102EC800134428462246FFF77BFF284603B0F0BD8F
:102ED800CC05002084030020D8050020D005002060
:102EE80010B50020FEF70EFD044668B9FEF744FE53
:102EF80001280BD12046FEF767FE38B9FFF714FF0B
:102F080030B9FEF77DFEF9E7012010BD002010BDA5
:102F1800FFF70AFF0020FEF7F5FC003018BF01207C
:102F280010BD08B5FFF7DCFFBDE80840FEF7E2BCBE
:102F380008B5FFF7F6FFFFF7C5FE014B986808BD17
:102F4800A405002008B5FFF7ECFFFFF7BBFE014B17
:102F5800586808BDA405002008B5FFF7E2FFFFF791
:102F6800B1FE014B186808BDA4050020024B1A6881
:102F7800024B1A60704700BF84030020CC05002074
:102F8800704741747047007CFEF7A6BD007CFEF7D1
:102F980083BD007CFEF790BD007CFEF785BD007CFC
:102FA800FEF792BD10B50446FDF777F8204610BD30
:102FB80070B5457C04460E4625B9007CFEF78CFDAD
:102FC800002805DD3146207CBDE87040FEF75CBD79
:102FD800284670BD10B504460846114600226260B6
:102FE8004FF47A72A260054A20742260012262744A
:102FF8001A46FEF741FD204610BD00BF747F0A083F
:1030080038B50C4D296811F0010411D12846FDF797
:1030180048F868B1084A2146084B0948FFF7DAFF23
:103028002846FDF743F8074A0749054800F00AFA19
:10303800034838BD7406002078060020F0050020FB
:10304800DC05002078040020892F0A0841747047A5
:1030580070470021007CFEF75FBD0121007CFEF770
:103068005BBD007CFEF750BD007CFEF745BD38B562
:103078000446007C0D46FEF747FD002801DC607C15
:1030880020B12946207CFEF74FFD012038BD007C89
:10309800FEF752BD10B50446FCF7FFFF204610BDF1
:1030A80010B50446002363604FF47A73A360054BA0
:1030B800084623600123217463741146FEF714FD4A
:1030C800204610BDA47F0A0810B50446142200212A
:1030D80001F0F9FD054B20466360054BE36040F2C3
:1030E800011323818123238210BD00BF81070020A3
:1030F8000007002030B50E4D87B001A8FFF7E4FFA8
:10310800296811F0010410D12846FCF7CAFF60B104
:1031180001AA21460748FFF7C3FF2846FCF7C6FF68
:10312800054A0649034800F08DF9024807B030BD4A
:10313800FC060020840800207804002059300A0882
:1031480010B504461422002101F0BDFD054B2046B0
:103158006360054BE36040F20113238181232382DE
:1031680010BD00BF340900209C08002010B50E4C8B
:1031780086B001A8FFF7E4FF2368DB0710D42046D8
:10318800FCF78FFF60B101AA01210848FFF788FF0B
:103198002046FCF78BFF064A0649044800F052F91E
:1031A800024806B010BD00BF980800202009002082
:1031B8007804002059300A0870470022114610464A
:1031C800FEF74EBD0348044B044A0549036000F06E
:1031D80039B900BF380A0020D47F0A0878040020D3
:1031E800C1310A0810B5044602F0E0FA0138231884
:1031F8002046984206D20278197800F8011B03F895
:103208000129F6E710BD70B50C46911E222920D879
:103218002546294610B9234430220EE0B0FBF2F6C9
:1032280002FB1600C1B2092805F8011B94BF303112
:10323800573105F8011C3046EBE7994202D201F8F4
:10324800012BFAE7002320460B70FFF7CBFF20463F
:1032580070BD002070BD000008B5144B33B1FFF7F6
:1032680049FF03681B699847002816DC104B33B1E7
:10327800FFF7C6FE03681B699847002810DC0D4B52
:103288000BB1AFF300800C4B7BB1FFF76FFF036806
:103298001B699847002806DC08BDAFF30080E5E706
:1032A800AFF30080EBE7AFF3008008BD000000003B
:1032B80000000000000000000000000008B5FFF753
:1032C800CBFFFEF70FFB014B186008BD440A002036
:1032D8000248034A0349121A01F0EABC00400240BE
:1032E8000440024078860A0807B5002300931A466E
:1032F8006FF07701FEF77AFC03B05DF804FB00007D
:1033080007B543880A2B08D0502B09D1094B1B68F5
:103318003BB103B05DF804EB1847FFF7E5FF06E0A3
:10332800002300931A466FF07701FEF75FFC03B0A5
:103338005DF804FB3C0A002038B5104C104D23689A
:10334800AB42104B0CBF012200221A7002D0FFF7CB
:10335800BFFF2560FEF7B6FA01F0BEFC0A4B1BB1B1
:10336800FEF7B0FAAFF3008000210748FEF770FCC3
:10337800BDE8384000210548FEF72EBC0040024059
:103388001E1C279A400A00200000000009330A0882
:1033980038B50B4D296811F001040FD12846FCF708
:1033A80080FE58B121460748FEF78EFF2846FCF7F5
:1033B8007DFE054A0549034800F044F8014838BD38
:1033C800480A00204C0A00207804002079220A08C4
:1033D80013B5084C00231A46194600932046FEF7F9
:1033E800EBFF2046044A054902B0BDE8104000F052
:1033F80029B800BF600A00207804002049230A0881
:1034080070B50C4C0C4E0D4D00212046FFF7BAF854
:1034180020460B4C3246294600F014F8012120467C
:10342800FFF7B0F8324629462046BDE8704000F064
:1034380009B800BF780A0020780400207D250A0812
:10344800880A00200B460146184601F027BB08B53C
:10345800FEF74EFC244B1A68D0075CBF01221A60A5
:10346800224B1A68D1075CBF01221A60204B1A68E8
:10347800D2075CBF01221A601E4B1A68D0075CBFD6
:1034880001221A601C4B1A68D1075CBF01221A601E
:103498001A4B1A68D2075CBF01221A60184B1A68C7
:1034A800D0075CBF01221A60164B1A68D1075CBFAF
:1034B80001221A60144B1A68D2075CBF01221A60F5
:1034C800124B1A68D0075CBF01221A60104B1A68A9
:1034D800D1075CBF01221A600E4B1A68D2075CBF85
:1034E80001221A60704700BFC40A0020C00A0020E9
:1034F800BC0A0020B80A0020B40A0020B00A002044
:10350800AC0A0020A80A0020A40A0020A00A002073
:103518009C0A0020980A0020184B1A68D1075CBF43
:1035280001221A60164B1A68D2075CBF01221A6082
:10353800144B1A68D0075CBF01221A60124B1A6834
:10354800D1075CBF01221A60104B1A68D2075CBF12
:1035580001221A600E4B1A68D0075CBF01221A605C
:103568000C4B1A68D1075CBF01221A600A4B1A6813
:10357800D2075CBF01221A60704700BFE40A00202E
:10358800E00A0020DC0A0020D80A0020D40A002023
:10359800D00A0020CC0A0020C80A0020184B1A685C
:1035A800D1075CBF01221A60164B1A68D2075CBFAC
:1035B80001221A60144B1A68D0075CBF01221A60F6
:1035C800124B1A68D1075CBF01221A60104B1A68A7
:1035D800D2075CBF01221A600E4B1A68D0075CBF85
:1035E80001221A600C4B1A68D1075CBF01221A60CD
:1035F8000A4B1A68D2075CBF01221A60704700BFE5
:10360800040B0020000B0020FC0A0020F80A002010
:10361800F40A0020F00A0020EC0A0020E80A002042
:10362800244B1A68D0075CBF01221A60224B1A6823
:10363800D1075CBF01221A60204B1A68D2075CBF11
:1036480001221A601E4B1A68D0075CBF01221A605B
:103658001C4B1A68D1075CBF01221A601A4B1A6802
:10366800D2075CBF01221A60184B1A68D0075CBFEA
:1036780001221A60164B1A68D1075CBF01221A6032
:10368800144B1A68D2075CBF01221A60124B1A68E1
:10369800D0075CBF01221A60104B1A68D1075CBFC3
:1036A80001221A600E4B1A68D2075CBF01221A6009
:1036B800704700BF340B0020300B00202C0B00207B
:1036C800280B0020240B0020200B00201C0B0020BE
:1036D800180B0020140B0020100B00200C0B0020EE
:1036E800080B002081F0004102E000BF83F0004396
:1036F80030B54FEA41044FEA430594EA050F08BF85
:1037080090EA020F1FBF54EA000C55EA020C7FEA48
:10371800645C7FEA655C00F0E2804FEA5454D4EBC5
:103728005555B8BF6D420CDD2C4480EA020281EA8F
:10373800030382EA000083EA010180EA020281EAC7
:103748000303362D88BF30BD11F0004F4FEA013119
:103758004FF4801C4CEA113102D0404261EB410128
:1037680013F0004F4FEA03334CEA133302D05242AE
:1037780063EB430394EA050F00F0A780A4F101046A
:10378800D5F1200E0DDB02FA0EFC22FA05F28018A4
:1037980041F1000103FA0EF2801843FA05F359418A
:1037A8000EE0A5F120050EF1200E012A03FA0EFC09
:1037B80028BF4CF0020C43FA05F3C01851EBE37133
:1037C80001F0004507D54FF0000EDCF1000C7EEB50
:1037D80000006EEB0101B1F5801F1BD3B1F5001F8E
:1037E8000CD349085FEA30004FEA3C0C04F10104AD
:1037F8004FEA445212F5800F80F09A80BCF1004FD6
:1038080008BF5FEA500C50F1000041EB045141EA57
:10381800050130BD5FEA4C0C404141EB010111F458
:10382800801FA4F10104E9D191F0000F04BF014603
:103838000020B1FA81F308BF2033A3F10B03B3F1E1
:1038480020020CDA0C3208DD02F1140CC2F10C0271
:1038580001FA0CF021FA02F10CE002F11402D8BFCF
:10386800C2F1200C01FA02F120FA0CFCDCBF41EA9B
:103878000C019040E41AA2BF01EB0451294330BD6A
:103888006FEA04041F3C1CDA0C340EDC04F1140447
:10389800C4F1200220FA04F001FA02F340EA03001E
:1038A80021FA04F345EA030130BDC4F10C04C4F164
:1038B800200220FA02F001FA04F340EA0300294644
:1038C80030BD21FA04F0294630BD94F0000F83F48E
:1038D800801306BF81F480110134013D4EE77FEA71
:1038E800645C18BF7FEA655C29D094EA050F08BFBD
:1038F80090EA020F05D054EA000C04BF194610469E
:1039080030BD91EA030F1EBF0021002030BD5FEAE1
:10391800545C05D14000494128BF41F0004130BD09
:1039280014F580043CBF01F5801130BD01F000455D
:1039380045F0FE4141F470014FF0000030BD7FEAD0
:10394800645C1ABF194610467FEA655C1CBF0B46CB
:10395800024650EA013406BF52EA033591EA030FE2
:1039680041F4002130BD00BF90F0000F04BF0021DA
:10397800704730B54FF4806404F132044FF000050D
:103988004FF0000150E700BF90F0000F04BF002186
:10399800704730B54FF4806404F1320410F00045EC
:1039A80048BF40424FF000013EE700BF42004FEAE7
:1039B800E2014FEA31014FEA02701FBF12F07F4364
:1039C80093F07F4F81F06051704792F0000F14BF61
:1039D80093F07F4F704730B54FF4607401F00045A5
:1039E80021F0004120E700BF50EA010208BF7047FC
:1039F80030B54FF000050AE050EA010208BF7047F1
:103A080030B511F0004502D5404261EB41014FF459
:103A1800806404F132045FEA915C3FF4DCAE4FF05D
:103A280003025FEADC0C18BF03325FEADC0C18BF44
:103A3800033202EBDC02C2F1200300FA03FC20FA95
:103A480002F001FA03FE40EA0E0021FA02F11444E2
:103A5800C1E600BF70B54FF0FF0C4CF4E06C1CEAF7
:103A680011541DBF1CEA135594EA0C0F95EA0C0F6C
:103A780000F0DEF82C4481EA030621EA4C5123EADF
:103A88004C5350EA013518BF52EA033541F480110E
:103A980043F4801338D0A0FB02CE4FF00005E1FBC1
:103AA80002E506F00042E0FB03E54FF00006E1FB0B
:103AB80003569CF0000F18BF4EF0010EA4F1FF044E
:103AC800B6F5007F64F5407404D25FEA4E0E6D418E
:103AD80046EB060642EAC62141EA55514FEAC5209F
:103AE80040EA5E504FEACE2EB4F1FD0C88BFBCF51B
:103AF800E06F1ED8BEF1004F08BF5FEA500E50F1CC
:103B0800000041EB045170BD06F0004646EA010191
:103B180040EA020081EA0301B4EB5C04C2BFD4EBC3
:103B28000C0541EA045170BD41F480114FF0000EBC
:103B3800013C00F3AB8014F1360FDEBF002001F02A
:103B4800004170BDC4F10004203C35DA0C341BDCA4
:103B580004F11404C4F1200500FA05F320FA04F076
:103B680001FA05F240EA020001F0004221F00041AA
:103B780010EBD37021FA04F642EB06015EEA430E1D
:103B880008BF20EAD37070BDC4F10C04C4F120054D
:103B980000FA04F320FA05F001FA04F240EA020000
:103BA80001F0004110EBD37041F100015EEA430ED1
:103BB80008BF20EAD37070BDC4F1200500FA05F2F1
:103BC8004EEA020E20FA04F301FA05F243EA020370
:103BD80021FA04F001F0004121FA04F220EA02007F
:103BE80000EBD3705EEA430E08BF20EAD37070BDC5
:103BF80094F0000F0FD101F00046400041EB0101A5
:103C080011F4801F08BF013CF7D041EA060195F086
:103C1800000F18BF704703F00046520043EB030340
:103C280013F4801F08BF013DF7D043EA060370472D
:103C380094EA0C0F0CEA135518BF95EA0C0F0CD038
:103C480050EA410618BF52EA4306D1D181EA03017E
:103C580001F000414FF0000070BD50EA410606BF78
:103C68001046194652EA430619D094EA0C0F02D1BD
:103C780050EA013613D195EA0C0F05D152EA033602
:103C88001CBF104619460AD181EA030101F0004120
:103C980041F0FE4141F470014FF0000070BD41F069
:103CA800FE4141F4780170BD70B54FF0FF0C4CF443
:103CB800E06C1CEA11541DBF1CEA135594EA0C0F62
:103CC80095EA0C0F00F0A7F8A4EB050481EA030EAF
:103CD80052EA03354FEA013100F088804FEA033396
:103CE8004FF0805545EA131343EA12634FEA022264
:103CF80045EA111545EA10654FEA00260EF0004125
:103D08009D4208BF964244F1FD0404F5407402D276
:103D18005B084FEA3202B61A65EB03055B084FEA07
:103D280032024FF480104FF4002CB6EB020E75EB04
:103D3800030E22BFB61A754640EA0C005B084FEA2C
:103D48003202B6EB020E75EB030E22BFB61A7546A9
:103D580040EA5C005B084FEA3202B6EB020E75EBF4
:103D6800030E22BFB61A754640EA9C005B084FEA6C
:103D78003202B6EB020E75EB030E22BFB61A754679
:103D880040EADC0055EA060E18D04FEA051545EA68
:103D980016754FEA06164FEAC30343EA52734FEA11
:103DA800C2025FEA1C1CC0D111F4801F0BD141EA8A
:103DB80000014FF000004FF0004CB6E711F4801FEF
:103DC80004BF01430020B4F1FD0C88BFBCF5E06FCF
:103DD8003FF6AFAEB5EB030C04BFB6EB020C5FEADF
:103DE800500C50F1000041EB045170BD0EF0004E34
:103DF8004EEA113114EB5C04C2BFD4EB0C0541EA66
:103E0800045170BD41F480114FF0000E013C90E662
:103E180045EA060E8DE60CEA135594EA0C0F08BF26
:103E280095EA0C0F3FF43BAF94EA0C0F0AD150EA25
:103E380001347FF434AF95EA0C0F7FF425AF1046B8
:103E480019462CE795EA0C0F06D152EA03353FF4E0
:103E5800FDAE1046194622E750EA410618BF52EA5D
:103E680043067FF4C5AE50EA41047FF40DAF52EA31
:103E780043057FF4EBAE12E74FF0FF3C06E000BFCE
:103E88004FF0010C02E000BF4FF0010C4DF804CDDB
:103E98004FEA410C7FEA6C5C4FEA430C18BF7FEA9B
:103EA8006C5C1BD001B050EA410C0CBF52EA430CC9
:103EB80091EA030F02BF90EA020F0020704710F149
:103EC800000F91EA030F58BF994208BF90422CBFD8
:103ED800D8176FEAE37040F0010070474FEA410CD1
:103EE8007FEA6C5C02D150EA013C07D14FEA430CEF
:103EF8007FEA6C5CD6D152EA033CD3D05DF8040B60
:103F0800704700BF8446104662468C461946634691
:103F180000E000BF01B5FFF7B7FF002848BF10F168
:103F2800000F01BD4DF808EDFFF7F4FF0CBF0120AD
:103F380000205DF808FB00BF4DF808EDFFF7EAFF29
:103F480034BF012000205DF808FB00BF4DF808EDE4
:103F5800FFF7E0FF94BF012000205DF808FB00BFD9
:103F68004DF808EDFFF7CEFF94BF012000205DF863
:103F780008FB00BF4DF808EDFFF7C4FF34BF012070
:103F880000205DF808FB00BF4FEA410212F500125D
:103F980015D211D56FF47873B3EB625212D94FEA88
:103FA800C12343F0004343EA505311F0004F23FA72
:103FB80002F018BF404270474FF00000704750EAC7
:103FC800013005D111F0004008BF6FF00040704784
:103FD8004FF00000704700BF4A0011D212F50012DE
:103FE80011D20DD56FF47873B3EB62520ED44FEA49
:103FF800C12343F0004343EA505323FA02F07047C9
:104008004FF00000704750EA013002D14FF0FF3006
:1040180070474FF0000070474FEA4102B2F1E043A9
:1040280024BFB3F5001CDCF1FE5C0DD901F0004C97
:104038004FEAC0024CEA5070B2F1004F40EB8300E7
:1040480008BF20F00100704711F0804F21D113F113
:104058003872BCBF01F00040704741F480114FEA4C
:104068005252C2F11802C2F1200C10FA0CF320FAD5
:1040780002F018BF40F001004FEAC1234FEAD323F2
:1040880003FA0CFC40EA0C0023FA02F34FEA43035C
:10409800CCE77FEA625307D150EA01331EBF4FF0E5
:1040A800FE4040F44000704701F0004040F0FE4000
:1040B80040F40000704700BF80F0004002E000BFFD
:1040C80081F0004142001FBF5FEA410392EA030FFB
:1040D8007FEA226C7FEA236C6AD04FEA1262D2EB45
:1040E8001363C1BFD218414048404140B8BF5B424A
:1040F800192B88BF704710F0004F40F4000020F0E3
:104108007F4018BF404211F0004F41F4000121F0F8
:104118007F4118BF494292EA030F3FD0A2F1010242
:1041280041FA03FC10EB0C00C3F1200301FA03F180
:1041380000F0004302D5494260EB4000B0F5000FA3
:1041480013D3B0F1807F06D340084FEA310102F162
:104158000102FE2A51D2B1F1004F40EBC25008BF14
:1041680020F0010040EA03007047490040EB0000DE
:1041780010F4000FA2F10102EDD1B0FA80FCACF10D
:10418800080CB2EB0C0200FA0CF0AABF00EBC2500C
:1041980052421843BCBFD0401843704792F0000FFA
:1041A80081F4000106BF80F400000132013BB5E74D
:1041B8004FEA41037FEA226C18BF7FEA236C21D0C3
:1041C80092EA030F04D092F0000F08BF0846704728
:1041D80090EA010F1CBF0020704712F07F4F04D1F6
:1041E800400028BF40F00040704712F100723CBF09
:1041F80000F50000704700F0004343F0FE4040F433
:10420800000070477FEA226216BF08467FEA2363F0
:104218000146420206BF5FEA412390EA010F40F4DB
:10422800800070474FF0000304E000BF10F0004327
:1042380048BF40425FEA000C08BF704743F096430E
:1042480001464FF000001CE050EA010208BF704729
:104258004FF000030AE000BF50EA010208BF7047B0
:1042680011F0004302D5404261EB41015FEA010CC5
:1042780002BF84460146002043F0B64308BFA3F1BD
:104288008053A3F50003BCFA8CF2083AA3EBC2539F
:1042980010DB01FA02FC634400FA02FCC2F12002BE
:1042A800BCF1004F20FA02F243EB020008BF20F0F5
:1042B8000100704702F1200201FA02FCC2F120025B
:1042C80050EA4C0021FA02F243EB020008BF20EA50
:1042D800DC7070474FF0FF0C1CEAD0521EBF1CEA7E
:1042E800D15392EA0C0F93EA0C0F6FD01A4480EA6C
:1042F800010C400218BF5FEA41211ED04FF0006355
:1043080043EA501043EA5111A0FB01310CF0004080
:10431800B1F5000F3EBF490041EAD3715B0040EAA6
:10432800010062F17F02FD2A1DD8B3F1004F40EB76
:10433800C25008BF20F00100704790F0000F0CF049
:10434800004C08BF49024CEA502040EA51207F3A0D
:10435800C2BFD2F1FF0340EAC250704740F40000E8
:104368004FF00003013A5DDC12F1190FDCBF00F0D9
:1043780000407047C2F10002410021FA02F1C2F187
:10438800200200FA02FC5FEA310040F1000053EA23
:104398004C0308BF20EADC70704792F0000F00F071
:1043A800004C02BF400010F4000F013AF9D040EA77
:1043B8000C0093F0000F01F0004C02BF490011F40B
:1043C800000F013BF9D041EA0C018FE70CEAD15309
:1043D80092EA0C0F18BF93EA0C0F0AD030F0004C89
:1043E80018BF31F0004CD8D180EA010000F000403D
:1043F800704790F0000F17BF90F0004F084691F0FB
:10440800000F91F0004F14D092EA0C0F01D1420234
:104418000FD193EA0C0F03D14B0218BF084608D1FD
:1044280080EA010000F0004040F0FE4040F4000047
:10443800704740F0FE4040F4400070474FF0FF0CDA
:104448001CEAD0521EBF1CEAD15392EA0C0F93EA21
:104458000C0F69D0A2EB030280EA010C49024FEA73
:10446800402037D04FF0805343EA111143EA10132C
:104478000CF000408B4238BF5B0042F17D024FF4E4
:10448800000C8B4224BF5B1A40EA0C00B3EB510FBF
:1044980024BFA3EB510340EA5C00B3EB910F24BFA8
:1044A800A3EB910340EA9C00B3EBD10F24BFA3EB2D
:1044B800D10340EADC001B0118BF5FEA1C1CE0D1F5
:1044C800FD2A3FF650AF8B4240EBC25008BF20F0A8
:1044D800010070470CF0004C4CEA50207F32C2BFFC
:1044E800D2F1FF0340EAC250704740F400004FF099
:1044F8000003013A37E792F0000F00F0004C02BFCA
:10450800400010F4000F013AF9D040EA0C0093F093
:10451800000F01F0004C02BF490011F4000F013BED
:10452800F9D041EA0C0195E70CEAD15392EA0C0F55
:1045380008D142027FF47DAF93EA0C0F7FF470AF8D
:10454800084676E793EA0C0F04D14B023FF44CAFD0
:1045580008466EE730F0004C18BF31F0004CCAD165
:1045680030F000427FF45CAF31F000437FF43CAFA1
:104578005FE700BF4FF0FF3C06E000BF4FF0010CC3
:1045880002E000BF4FF0010C4DF804CD4FEA4002A5
:104598004FEA41037FEA226C18BF7FEA236C11D0EF
:1045A80001B052EA530C18BF90EA010F58BFB2EBA2
:1045B800030088BFC81738BF6FEAE17018BF40F022
:1045C800010070477FEA226C02D15FEA402C05D1D6
:1045D8007FEA236CE4D15FEA412CE1D05DF8040B5B
:1045E800704700BF844608466146FFE70FB5FFF7EE
:1045F800C9FF002848BF10F1000F0FBD4DF808EDA6
:10460800FFF7F4FF0CBF012000205DF808FB00BF96
:104618004DF808EDFFF7EAFF34BF012000205DF8F0
:1046280008FB00BF4DF808EDFFF7E0FF94BF01203D
:1046380000205DF808FB00BF4DF808EDFFF7D2FF3A
:1046480094BF012000205DF808FB00BF4DF808ED7D
:10465800FFF7C8FF34BF012000205DF808FB00BF4A
:104668004FEA4002B2F1FE4F0FD34FF09E03B3EB77
:1046780012620DD94FEA002343F0004310F0004FB7
:1046880023FA02F018BF404270474FF0000070470D
:1046980012F1610F01D1420205D110F0004008BFAC
:1046A8006FF0004070474FF00000704753B94AB9A7
:1046B800002908BF00281CBF4FF0FF314FF0FF3022
:1046C80000F0A6B9ADF1080C6DE904CE00F02AF8A7
:1046D800DDF804E0DDE9022304B07047D0B500221C
:1046E8000E4B06460F46FFF7B5F9FFF775FC044673
:1046F800FFF73AF900220A4BFFF7ACF902460B46DE
:1047080030463946FEF7F2FFFFF766FC23460022E3
:1047180042EA000210461946D0BD00BF0000F03D35
:104728000000F0412DE9F04F8C460C460546099EE5
:10473800002B4FD18A4217466BD9B2FA82FEBEF1DE
:10474800000F0BD0CEF1200520FA05F501FA0EF383
:1047580045EA030C02FA0EF700FA0EF5390CBCFB19
:10476800F1F0BAB201FB10C300FB02F84FEA154C96
:104778004CEA0344A04509D9E41900F1FF3380F05D
:104788002881A04540F2258102383C44C8EB040446
:10479800B4FBF1F301FB134C03FB02F2ACB244EAA5
:1047A8000C418A4209D9C91903F1FF3480F00F81FD
:1047B8008A4240F20C81023B39448A1A43EA00409B
:1047C8000021002E63D022FA0EF2002386E80C00A6
:1047D800BDE8F08F8B4207D9002E56D0002186E81D
:1047E80011000846BDE8F08FB3FA83F1002940F0C4
:1047F8009380A34202D3824200F2FE80851A64EBC2
:1048080003039C460120002E41D086E82010BDE815
:10481800F08F12B90127B7FBF2F7B7FA87FEBEF19E
:10482800000F36D1E41B4FEA17481FFA87F9012118
:10483800B4FBF8F308FB134409FB03F24FEA154CE9
:104848004CEA0444A24207D9E41903F1FF3002D22A
:10485800A24200F2D3800346A41AB4FBF8F008FB86
:10486800104809FB00F9ACB244EA0842914507D95F
:10487800D21900F1FF3402D2914500F2BA802046E5
:10488800C9EB020240EA03409BE731463046BDE8E7
:10489800F08F07FA0EF7CEF1200C24FA0CF34FEA4A
:1048A8001748B3FBF8FA1FFA87F908FB1A3520FAFC
:1048B8000CFC04FA0EF40AFB09FB4CEA040C4FEA60
:1048C8001C4242EA05439B4500FA0EF50AD9DB195A
:1048D8000AF1FF3280F08B809B4540F28880AAF174
:1048E800020A3B44CBEB0303B3FBF8F008FB10339D
:1048F80000FB09F41FFA8CFC4CEA03439C4207D9DD
:10490800DB1900F1FF326ED29C426CD902383B446D
:104918001C1B40EA0A418BE7C1F1200E8B4022FAAA
:104928000EFC4CEA030C24FA0EF74FEA1C49B7FBBD
:10493800F9FA1FFA8CF309FB1A7720FA0EF88C4063
:104948000AFB03F548EA04044FEA144848EA074713
:10495800BD4202FA01F200FA01FB09D917EB0C0774
:104968000AF1FF3041D2BD423FD9AAF1020A674499
:104978007F1BB7FBF9F509FB157705FB03F3A4B219
:1049880044EA0747BB4208D917EB0C0705F1FF308B
:1049980027D2BB4225D9023D674445EA0A40A0FB1D
:1049A8000289FF1A4F4545464C4614D329D066B3B1
:1049B800BBEB050367EB040707FA0EFECB40CF40BD
:1049C8004EEA030386E888000021BDE8F08F2346FD
:1049D800F3E61846DAE6B8EB020569EB0C04013891
:1049E800E5E70546D9E7104692E78246C0E79246D2
:1049F80078E702383A4443E7084604E7023B3C4478
:104A08002AE7C345E7D33C46D1E73146BDE8F08FF6
:104A1800704700BF094B70B51C680646256C3DB948
:104A28001A20FDF725F91A222064294600F04BF9CF
:104A3800216C3046BDE8704000F002B8EC0300205D
:104A480010B50C46416986B001F26C710369826940
:104A58000491016803EB43030391416802EB4202AE
:104A6800029181680191C1682046009104490B4474
:104A780004490A440449FDF713F9204606B010BD5D
:104A8800F17F0A08DC7F0A0815800A08002101F076
:104A9800CBBC0A22002101F055BD000010B5054C21
:104AA80013462CB10A4601460220AFF3008010BD20
:104AB800204610BD0000000038B5074B05461C68AD
:104AC800E36B1BB92420FDF7D3F8E063E16B2846BC
:104AD800BDE8384000F002B8EC0300202DE9F041B1
:104AE8000C46804602F066FB21460746404602F027
:104AF80065FB4669044606F26C76B30705D1642265
:104B080096FBF2F302FB13634BB94FF4C87596FB9F
:104B1800F5F305FB1365B5FA85F35B0900E001239E
:104B28005F4A302505FB032501F056FE01F056FECD
:104B38005C4B1B68F3B17B689E4205D13968D8F895
:104B48000030FA6941B90AE0304601F09DFD0028BD
:104B5800F4D14FF0FF330DE0934208DB01E09342BC
:104B680007DABA6B9342ACBF0023012302E00023AB
:104B780000E001232362236A3C20012B0CBFF96B60
:104B8800396A4FF4616391FBF3F603FB161393FB49
:104B9800F0F200FB123061682368891AA2681B1AB8
:104BA800921B3B2B23606160A26003DD01316160D1
:104BB8003C3B04E0002B03DA013961603C3323609D
:104BC80063683B2B03DD0132A2603C3B04E0002B11
:104BD80003DA013AA2603C336360A368172B22DD35
:104BE800E269183B0132E261A269A3600132062A38
:104BF800C8BF0022A261E26823690132E26055F869
:104C080023108A4246DD01330C2B08BF6369A2EBEF
:104C18000102E26005BF013300222361226104BF63
:104C28006361E26136E0002B34DAE2691833013A55
:104C3800E261A269A360013A48BF0622A261E26864
:104C4800013AE26032BB2369013B01D423611DE0D4
:104C58000B23236163695A1E12F0030F626103F28A
:104C68006B7305D1642193FBF1F201FB12324AB94F
:104C78004FF4C87193FBF1F201FB1233B3FA83F3DB
:104C88005B0900E0012303F5B673E361236955F876
:104C98002330E36001F0A1FD2046BDE8F08100BFAC
:104CA800A0810A08540C002000487047F003002037
:104CB80010B5431E0A44914204D011F8014B03F881
:104CC800014FF8E710BD03460244934202D003F8AF
:104CD800011BFAE77047000038B5124B05461C68FF
:104CE800A36BD3B91820FCF7C3FF43F20E33A063BC
:104CF80003804AF6CD33438041F2342383804EF259
:104D08006D63C3804DF6EC630381052343810B2358
:104D1800838101220023C0E90423A36B00221D61C3
:104D28005A6138BDEC03002010F8012B11F8013B43
:104D3800012A28BF9A42F7D0D01A7047034611F8C3
:104D4800012B03F8012B002AF9D17047024B0146C9
:104D5800186800F003B800BFEC03002070B50646E1
:104D680008460C4600F022FD451C29463046FCF753
:104D7800C7FF064618B12A462146FFF799FF304675
:104D880070BD416910B58B070CD140F26C730029D6
:104D9800A8BF6FF063030B44642493FBF4F204FB95
:104DA800123383B940F26C730029A8BF6FF0630314
:104DB8004FF4C8720B4493FBF2F102FB1133B3FAC0
:104DC80083F2520900E001228369C1695B0003EBA9
:104DD80001131344212B0EDC202B2FDA0D2B02DCC0
:104DE8000A2B05DB2AE0102B26DB112B26DD1C3BCA
:104DF800012B23D920E041F2C66293420EDC41F236
:104E0800C262934216DA41F2A262934212D013DBD5
:104E1800A3F5B553123B022B0CD90DE041F2D56234
:104E2800934207D041F2D762934203D041F2D36252
:104E3800934201D1012010BD002010BD4FF0FF307A
:104E480010BD00002DE9F04F0E4693B01D460746F1
:104E5800914601F009FC002306931C46731E03903B
:104E6800029399F80030002B00F09284252B08D08B
:104E7800029A944280F090843B5509F1010901346B
:104E8800EFE799F801A0BAF1300F07D0BAF12B0F6C
:104E980004D009F101094FF0000A01E009F1020903
:104EA80099F80030313B082B08D848460A220AA94D
:104EB80001F0D0FBDDF82890804601E04FF00008B3
:104EC80099F80030452B01D04F2B01D109F1010988
:104ED80099F80000A0F12503552B00F25D84DFE866
:104EE80013F04A045B045B045B045B045B045B042F
:104EF8005B045B045B045B045B045B045B045B04B2
:104F08005B045B045B045B045B045B045B045B04A1
:104F18005B045B045B045B045B046F00A100D400CA
:104F28001A015B043F01A00126022D025B045B0409
:104F38005B0460025B045B0468025B0496021C036A
:104F480024033A0342038503C6009F031F045B043E
:104F58005B045B045B045B045B0456008900BA00D5
:104F68000C010C015B04710189005B043D022602FF
:104F78002D025D0262025B0468025B04BE009B02B4
:104F88001E032D035B047E03C2009103E703AB6994
:104F9800039A183352F82380404600F007FC08F1C2
:104FA800FF383B192044844200F0EB83029A944274
:104FB80080F0F28318F8012F013403F8012BF2E78F
:104FC800AB69039A02EB8303D3F87C80404600F078
:104FD800EDFB08F1FF383B192044844200F0D183EF
:104FE800029A944280F0D88318F8012F013403F80C
:104FF800012BF2E72B69039A52F82380404600F010
:10500800D5FB08F1FF383B192044844200F0B983EE
:10501800029A944280F0C08318F8012F013403F8F3
:10502800012BF2E72B69039A0C3352F82380404690
:1050380000F0BCFB08F1FF383B192044844200F023
:10504800A083029A944280F0A78318F8012F0134B4
:1050580003F8012BF2E7039BD3F8A0800AE0039B37
:10506800D3F8E48006E0039BD3F89C8002E0039B1E
:10507800D3F89880404600F099FB98F80030002B50
:1050880000F07F832B46424693E0B649D5F814B02A
:105098008B45ACBF00210121BBF1000F04DB64206C
:1050A8009BFBF0F0133008E00BF26C70079101F0F5
:1050B8001BFD642390FBF3F00799BAF1000F08D0A9
:1050C800632809DDA84BA94ABAF12B0F18BF13466C
:1050D80003E0A64BA64A01E0A44BA64AB8F1010F8B
:1050E80098BF4FF00208C1EB0801019000919D485C
:1050F800A1498345B8BF0B461DE2A04AA049EB6809
:10510800642808BF0A46311B3819FCF7E1FD00285E
:1051180080F2028340E368692B69002803F1010BE0
:1051280007EB0408C4EB060AEB6805DB642290FB76
:10513800F2F102FB11000AE000F26C70079301F033
:10514800D3FC642290FBF2F101FB1200079B019053
:10515800009351465B4640468A4AFCF7B9FDD6E7BC
:1051680025238DF82830BAF1000F07D0B8F1050FC4
:105178008DF829A098BF4FF0060804E02B238DF87E
:1051880029304FF00A08B8F1060302D10DF12A00C0
:105198000AE07D4A1E210DF12A00FCF799FD00283E
:1051A800F4DD0DF12A0318447849FFF7C7FD2B46B3
:1051B8000AAA311B3819FFF745FE002840F3EC8294
:1051C8000444DEE22846FFF7DCFD804668690028D3
:1051D80005DB642290FBF2F102FB110008E000F20B
:1051E8006C7001F081FC642290FBF2F303FB120067
:1051F800B8F1000F06DA6A69654B9A42B8BF4FF0FA
:10520800010806E005D06A69564B9A42B8BF4FF0CC
:10521800FF386423404490FBF3F203FB1200184468
:10522800F8E1504B696928469942ACBF0023012335
:1052380008910793FFF7A5FD08998346002904DB29
:10524800642391FBF3F3133308E001F26C700891C7
:1052580001F04AFC642390FBF3F30899686900287D
:1052680006DB4FF0640E90FBFEFC0EFB1C000DE00D
:1052780000F26C700991089301F036FC4FF0640E4F
:1052880090FBFEFC0CFB1E000999089BBBF1000F6C
:1052980008DA69693E4A91420ADA4FF0010BCDF803
:1052A8001CB005E004D02F4A9142B8BF4FF0FF3B35
:1052B8000BEB0002501C02D1013B632203E0642A7D
:1052C80004BF01330022642000FB0323079A42B184
:1052D8002D228DF82820B8F1000F13D008F1FF38DF
:1052E80010E0BAF12B0F10D142F20F7293420CD991
:1052F8008DF828A0B8F1000FF0D112AA252102F8E4
:105308001F1D0AE00DF1290200E00AAA25211170EB
:10531800BAF1000F01D1501C02E03021901C5170ED
:105328001C490793FFF70AFD079B0093ACE1144A59
:105338001249AB686B2808BF0A46E4E6A9680C2343
:1053480031B1994216BF91FBF3F20B4603FB1213DE
:105358000A4A0B49492808BF0A46D4E6EB690E4AAF
:105368000133D0E694F8FFFF0F820A08E47D0A08AB
:1053780000820A0807820A0811820A0813820A08AA
:1053880021820A0817820A0826820A082A820A083D
:1053980095F8FFFF32820A0836820A082B69013322
:1053A8003CE16B683AE1029B9C4280F0F5810A235C
:1053B800E5E1AB68039A0B2BCCBFA423A0231344CD
:1053C800D3F80480404600F0F1F94246B14B391950
:1053D800D3F800E02044844200F0D381029B9C4231
:1053E80080F0DA8199F800300134502B13780AD113
:1053F8000EEB030C9CF801C00CF0030CBCF1010F80
:1054080008BF2033DBB201F8013B0132E3E76B68E8
:10541800A14A0093AB6839E12B6A002B17DB01F036
:10542800DBF9069B1BB901F0D9F90123069301F0BA
:10543800C1FE2B6A1C22002BD4BF0023012302FBD0
:105448000300036AC3F1000801F0C7F901E04FF057
:105458000008D5F814E0C4EB060C7046BEF145020E
:105468004FEAE07141F1FF33002A73F1000B07EBBB
:10547800040A03DABEF1420241F1FF33910841EA1E
:1054880083719B10049105930EF1FF31642391FB06
:10549800F3F1DDE90423521A63EBE1730EF22B10EA
:1054A8004FF4C87190FBF1F1521843EBE17340F2ED
:1054B8006D11AEF1460E01FB0EFEE96912EB0E020C
:1054C80043EBEE7352184FF0180E43EBE173A2FB57
:1054D8000E010EFB0311AB684FF03C0EC01841EBF8
:1054E800E371A0FB0E230EFB01336968521843EBEE
:1054F800E173A2FB0E010EFB03112B68674AC0186B
:1055080041EBE371B0EB080061EBE871CDE9000114
:1055180061465046FCF7DCFBF9E52B687EE0029B10
:105528009C4280F03981092329E12B685C4A019368
:105538006B680093AB68311B38190EE6029B9C42DE
:1055480080F02A81AB69621C0BB9372300E0303345
:105558003B55144615E1EB69AA6907339B1A0722E4
:1055680093FBF2F35AE02846FFF70BFCAA690AB14D
:10557800531E00E0062300282FDCEA6901D10A3215
:105588003BE040F26B719A1A6B69002BB4BF084676
:105598006FF064001844810707D14FF0640E01468C
:1055A80090FBFEF00EFB101181B940F26B71002BDD
:1055B800A8BF6FF0640119444FF4C87391FBF3F06E
:1055C80003FB1011B1FA81F1490900E00121521AD7
:1055D800052AB4BF3523342320E001231EE0029BB3
:1055E8009C4280F0D980AB693033C8E0AA690AB11F
:1055F800531E00E00623EA690732D21A072392FBFA
:10560800F3F30BE06869002803DA00F26C7001F02C
:105618006BFA642390FBF3F202FB1303214A72E551
:105628006B69214A03F26C7B934205DA2D238DF8CE
:105638002830CBF1000B08E0BAF12B0F0DD142F264
:105648000F739B4511D98DF828A0B8F1000F01D030
:1056580008F1FF380DF1290300E00AAB25221A7082
:10566800BAF1000F08D1581C09E0B8F1000FF4D1C5
:1056780025238DF828300AAB3022981C5A700B4924
:10568800FFF75CFBCDF800B043460AAA311B381976
:105698003FE000BF8803002045820A083B820A08D1
:1056A80040820A0821820A0894F8FFFF32820A0819
:1056B8002B6A002B65DB01F08FF8069B1BB901F004
:1056C8008DF80123069301F075FD2B6A1C22002B2F
:1056D800D4BF0023012302FB0300036A07EB040A7B
:1056E800C3F1000801F079F83C2398FBF3F0079325
:1056F80001F0FAFD079BC4EB060B90FBF3F202FBEB
:1057080013004FF46163009098FBF3F35946504639
:10571800244AFCF7DDFAFAE40444A64231D83BE017
:105728002B6A002B2DDB01F057F8069B1BB901F003
:1057380055F8012306932B6A1B4A002BD4BF00237C
:10574800012352F82380404600F030F808F1FF3872
:105758003B19204484420BD0029A944205D218F88F
:10576800012F013403F8012BF4E701F036F813E0B8
:1057780001F033F805E0029B9C420DD225233B55EE
:10578800013499F800301BB109F10109FFF769BB31
:1057980026B100233B5501E0002000E0204613B06D
:1057A800BDE8F08F4F820A0828040020034613F84A
:1057B800012B002AFBD1181A0138704730B582B185
:1057C800451E013915F8013F11F8014FA34206D1D2
:1057D800EC431444E04201D0002BF3D11C46181BC3
:1057E80030BD104630BD2DE9F0410F46904602F01D
:1057F80045F804460D46B8F1000F11D0C7F30A5317
:10580800C3F16B03002B0BDD1B0503F17F5500244F
:1058180005F5401522462B46FEF71CF9BDE8F08138
:1058280020462946BDE8F0812DE9F04F82460C4616
:105838009DB00023139218934FF000084FF0000911
:105848001791179B1A780D2A05D8092A13D2002A0E
:1058580000F0AD8112E02B2A04D02D2A04D0202A92
:105868000CD108E0002200E001220C925A1C179289
:105878005B782BB99BE101331793E2E700230C9384
:10588800179D2B78302B5CD16B78582B01D0782B57
:105898004CD10C9BA84A019318AB009317A919ABDC
:1058A800504601F070F910F00706044600F08585AF
:1058B800062E05D10135002317950C9300F07DBD08
:1058C800189A3AB135211AA802F0BFF8189950462B
:1058D80001F043FD062E22D8DFE806F0040D081873
:1058E8001D0D04004FF00009C84618E0DDF8688077
:1058F800DDF86C9013E01B9B199A23F4801302F2D5
:105908003342DDF8688043EA025908E0DFF82C9258
:105918004FF0000803E06FF000494FF0FF3821070F
:1059280040F14B8549F0004900F047BD179B5A1CD0
:1059380017925B78302BF9D0002B00F03E850123BD
:1059480000E000230593179B0A22069300239B4639
:1059580002930493179D2E78A6F13003D9B2092932
:1059680011D8BBF1080FD5BF0499029902FB013386
:1059780002FB013305F10105D4BF049302930BF137
:10598800010B1795E6E75046FFF78EF90768504672
:10599800FFF78AF90068FFF709FF394602462846EB
:1059A800FFF70CFF074628B1002033465D46024644
:1059B80001465AE05046FFF777F90068FFF7F6FE10
:1059C800179B1A1817921B5CBBF1000F45D158465C
:1059D800302B05D1179B01305A1C17925B78F7E7DB
:1059E800A3F13102082A46D8179A069202460020E7
:1059F8000546303B00F1010129D00A44294605EB50
:105A0800000C0A2661450FD0013101F1FF3EBEF1BD
:105A1800080F03DC049F77430497F3E71029DEBFE0
:105A2800029F77430297EDE72844082800F1010513
:105A380005DC04980A2101FB0033049306E0102DCD
:105A4800DFBF02980A2101FB003302930021179B54
:105A5800581C17905B78084602E05D4638463A467F
:105A6800A3F130010929C4D90121652B01D0452BA7
:105A78004FD16DB904E0652B40F0AD8400220121BF
:105A880028B9059B002B00F09280054600E0002510
:105A9800179C631C179363782B2B06D02D2B02D0F1
:105AA8000026039606E0012300E000230393A31CCD
:105AB8001793A378A3F13006092E29D8302B04D1E7
:105AC800179B5E1C17965B78F8E7A3F13106082E42
